{
  "contractName": "Register",
  "abi": [
    {
      "constant": true,
      "inputs": [
        {
          "name": "_of",
          "type": "address"
        }
      ],
      "name": "getUserInfo",
      "outputs": [
        {
          "name": "first",
          "type": "string"
        },
        {
          "name": "last",
          "type": "string"
        },
        {
          "name": "email",
          "type": "string"
        }
      ],
      "payable": false,
      "stateMutability": "view",
      "type": "function"
    },
    {
      "constant": false,
      "inputs": [],
      "name": "renounceOwnership",
      "outputs": [],
      "payable": false,
      "stateMutability": "nonpayable",
      "type": "function"
    },
    {
      "constant": true,
      "inputs": [],
      "name": "owner",
      "outputs": [
        {
          "name": "",
          "type": "address"
        }
      ],
      "payable": false,
      "stateMutability": "view",
      "type": "function"
    },
    {
      "constant": false,
      "inputs": [
        {
          "name": "newOwner",
          "type": "address"
        }
      ],
      "name": "transferOwnership",
      "outputs": [],
      "payable": false,
      "stateMutability": "nonpayable",
      "type": "function"
    },
    {
      "inputs": [],
      "payable": false,
      "stateMutability": "nonpayable",
      "type": "constructor"
    },
    {
      "anonymous": false,
      "inputs": [
        {
          "indexed": false,
          "name": "_first",
          "type": "string"
        },
        {
          "indexed": false,
          "name": "_last",
          "type": "string"
        },
        {
          "indexed": false,
          "name": "_email",
          "type": "string"
        }
      ],
      "name": "UserRegistered",
      "type": "event"
    },
    {
      "anonymous": false,
      "inputs": [
        {
          "indexed": true,
          "name": "previousOwner",
          "type": "address"
        }
      ],
      "name": "OwnershipRenounced",
      "type": "event"
    },
    {
      "anonymous": false,
      "inputs": [
        {
          "indexed": true,
          "name": "previousOwner",
          "type": "address"
        },
        {
          "indexed": true,
          "name": "newOwner",
          "type": "address"
        }
      ],
      "name": "OwnershipTransferred",
      "type": "event"
    },
    {
      "constant": false,
      "inputs": [
        {
          "name": "_first",
          "type": "string"
        },
        {
          "name": "_last",
          "type": "string"
        },
        {
          "name": "_email",
          "type": "string"
        }
      ],
      "name": "register",
      "outputs": [],
      "payable": false,
      "stateMutability": "nonpayable",
      "type": "function"
    },
    {
      "constant": true,
      "inputs": [
        {
          "name": "_of",
          "type": "address"
        }
      ],
      "name": "getUser",
      "outputs": [
        {
          "name": "first",
          "type": "string"
        },
        {
          "name": "last",
          "type": "string"
        },
        {
          "name": "email",
          "type": "string"
        }
      ],
      "payable": false,
      "stateMutability": "view",
      "type": "function"
    },
    {
      "constant": true,
      "inputs": [
        {
          "name": "_of",
          "type": "address"
        }
      ],
      "name": "isRegistered",
      "outputs": [
        {
          "name": "",
          "type": "bool"
        }
      ],
      "payable": false,
      "stateMutability": "view",
      "type": "function"
    }
  ],
  "bytecode": "0x608060405234801561001057600080fd5b50336000806101000a81548173ffffffffffffffffffffffffffffffffffffffff021916908373ffffffffffffffffffffffffffffffffffffffff16021790555060003373ffffffffffffffffffffffffffffffffffffffff161415151561007757600080fd5b60003373ffffffffffffffffffffffffffffffffffffffff161415151561009d57600080fd5b611497806100ac6000396000f300608060405260043610610083576000357c0100000000000000000000000000000000000000000000000000000000900463ffffffff1680634cd08d03146100885780636386c1c7146100b15780636f77926b146100f0578063715018a61461012f5780638da5cb5b14610146578063c3c5a54714610171578063f2fde38b146101ae575b600080fd5b34801561009457600080fd5b506100af60048036036100aa9190810190611160565b6101d7565b005b3480156100bd57600080fd5b506100d860048036036100d39190810190611137565b610298565b6040516100e7939291906112b7565b60405180910390f35b3480156100fc57600080fd5b5061011760048036036101129190810190611137565b6104f3565b604051610126939291906112b7565b60405180910390f35b34801561013b57600080fd5b50610144610557565b005b34801561015257600080fd5b5061015b610659565b6040516101689190611281565b60405180910390f35b34801561017d57600080fd5b5061019860048036036101939190810190611137565b61067e565b6040516101a5919061129c565b60405180910390f35b3480156101ba57600080fd5b506101d560048036036101d09190810190611137565b6106c6565b005b6101df610ffd565b60003373ffffffffffffffffffffffffffffffffffffffff161415151561020557600080fd5b61020e3361067e565b15151561021a57600080fd5b60806040519081016040528085815260200184815260200183815260200160011515815250905061024b338261081b565b7f0a012201ed6ad03a46b4a2be566d40057141543493eb16b35966ad83539abe4f81600001518260200151836040015160405161028a93929190611303565b60405180910390a150505050565b60608060606000808573ffffffffffffffffffffffffffffffffffffffff16141515156102c457600080fd5b600160008673ffffffffffffffffffffffffffffffffffffffff1673ffffffffffffffffffffffffffffffffffffffff1681526020019081526020016000209050806000018160010182600201828054600181600116156101000203166002900480601f0160208091040260200160405190810160405280929190818152602001828054600181600116156101000203166002900480156103a65780601f1061037b576101008083540402835291602001916103a6565b820191906000526020600020905b81548152906001019060200180831161038957829003601f168201915b50505050509250818054600181600116156101000203166002900480601f0160208091040260200160405190810160405280929190818152602001828054600181600116156101000203166002900480156104425780601f1061041757610100808354040283529160200191610442565b820191906000526020600020905b81548152906001019060200180831161042557829003601f168201915b50505050509150808054600181600116156101000203166002900480601f0160208091040260200160405190810160405280929190818152602001828054600181600116156101000203166002900480156104de5780601f106104b3576101008083540402835291602001916104de565b820191906000526020600020905b8154815290600101906020018083116104c157829003601f168201915b50505050509050935093509350509193909250565b6060806060610500610ffd565b60008573ffffffffffffffffffffffffffffffffffffffff161415151561052657600080fd5b61052f85610c97565b9050806000015181602001518260400151829250819150809050935093509350509193909250565b6000809054906101000a900473ffffffffffffffffffffffffffffffffffffffff1673ffffffffffffffffffffffffffffffffffffffff163373ffffffffffffffffffffffffffffffffffffffff161415156105b257600080fd5b6000809054906101000a900473ffffffffffffffffffffffffffffffffffffffff1673ffffffffffffffffffffffffffffffffffffffff167ff8df31144d9c2f0f6b59d69b8b98abd5459d07f2742c4df920b25aae33c6482060405160405180910390a260008060006101000a81548173ffffffffffffffffffffffffffffffffffffffff021916908373ffffffffffffffffffffffffffffffffffffffff160217905550565b6000809054906101000a900473ffffffffffffffffffffffffffffffffffffffff1681565b6000610688610ffd565b60008373ffffffffffffffffffffffffffffffffffffffff16141515156106ae57600080fd5b6106b783610c97565b90508060600151915050919050565b6000809054906101000a900473ffffffffffffffffffffffffffffffffffffffff1673ffffffffffffffffffffffffffffffffffffffff163373ffffffffffffffffffffffffffffffffffffffff1614151561072157600080fd5b600073ffffffffffffffffffffffffffffffffffffffff168173ffffffffffffffffffffffffffffffffffffffff161415151561075d57600080fd5b8073ffffffffffffffffffffffffffffffffffffffff166000809054906101000a900473ffffffffffffffffffffffffffffffffffffffff1673ffffffffffffffffffffffffffffffffffffffff167f8be0079c531659141344cd1fd0a4f28419497f9722a3daafe3b4186f6b6457e060405160405180910390a3806000806101000a81548173ffffffffffffffffffffffffffffffffffffffff021916908373ffffffffffffffffffffffffffffffffffffffff16021790555050565b8173ffffffffffffffffffffffffffffffffffffffff163373ffffffffffffffffffffffffffffffffffffffff1614151561085557600080fd5b600160003373ffffffffffffffffffffffffffffffffffffffff1673ffffffffffffffffffffffffffffffffffffffff16815260200190815260200160002060030160009054906101000a900460ff161515156108b157600080fd5b80600160003373ffffffffffffffffffffffffffffffffffffffff1673ffffffffffffffffffffffffffffffffffffffff168152602001908152602001600020600082015181600001908051906020019061090d929190611028565b50602082015181600101908051906020019061092a929190611028565b506040820151816002019080519060200190610947929190611028565b5060608201518160030160006101000a81548160ff021916908315150217905550905050600160003373ffffffffffffffffffffffffffffffffffffffff1673ffffffffffffffffffffffffffffffffffffffff16815260200190815260200160002060030160009054906101000a900460ff1615156109c357fe5b610aab600160003373ffffffffffffffffffffffffffffffffffffffff1673ffffffffffffffffffffffffffffffffffffffff1681526020019081526020016000206000018054600181600116156101000203166002900480601f016020809104026020016040519081016040528092919081815260200182805460018160011615610100020316600290048015610a9c5780601f10610a7157610100808354040283529160200191610a9c565b820191906000526020600020905b815481529060010190602001808311610a7f57829003601f168201915b50505050508260000151610f24565b1515610ab357fe5b610b9b600160003373ffffffffffffffffffffffffffffffffffffffff1673ffffffffffffffffffffffffffffffffffffffff1681526020019081526020016000206001018054600181600116156101000203166002900480601f016020809104026020016040519081016040528092919081815260200182805460018160011615610100020316600290048015610b8c5780601f10610b6157610100808354040283529160200191610b8c565b820191906000526020600020905b815481529060010190602001808311610b6f57829003601f168201915b50505050508260200151610f24565b1515610ba357fe5b610c8b600160003373ffffffffffffffffffffffffffffffffffffffff1673ffffffffffffffffffffffffffffffffffffffff1681526020019081526020016000206002018054600181600116156101000203166002900480601f016020809104026020016040519081016040528092919081815260200182805460018160011615610100020316600290048015610c7c5780601f10610c5157610100808354040283529160200191610c7c565b820191906000526020600020905b815481529060010190602001808311610c5f57829003601f168201915b50505050508260400151610f24565b1515610c9357fe5b5050565b610c9f610ffd565b610ca7610ffd565b60008373ffffffffffffffffffffffffffffffffffffffff1614151515610ccd57600080fd5b600160008473ffffffffffffffffffffffffffffffffffffffff1673ffffffffffffffffffffffffffffffffffffffff16815260200190815260200160002060806040519081016040529081600082018054600181600116156101000203166002900480601f016020809104026020016040519081016040528092919081815260200182805460018160011615610100020316600290048015610db15780601f10610d8657610100808354040283529160200191610db1565b820191906000526020600020905b815481529060010190602001808311610d9457829003601f168201915b50505050508152602001600182018054600181600116156101000203166002900480601f016020809104026020016040519081016040528092919081815260200182805460018160011615610100020316600290048015610e535780601f10610e2857610100808354040283529160200191610e53565b820191906000526020600020905b815481529060010190602001808311610e3657829003601f168201915b50505050508152602001600282018054600181600116156101000203166002900480601f016020809104026020016040519081016040528092919081815260200182805460018160011615610100020316600290048015610ef55780601f10610eca57610100808354040283529160200191610ef5565b820191906000526020600020905b815481529060010190602001808311610ed857829003601f168201915b505050505081526020016003820160009054906101000a900460ff161515151581525050905080915050919050565b6000816040518082805190602001908083835b602083101515610f5c5780518252602082019150602081019050602083039250610f37565b6001836020036101000a038019825116818451168082178552505050505050905001915050604051809103902060001916836040518082805190602001908083835b602083101515610fc35780518252602082019150602081019050602083039250610f9e565b6001836020036101000a03801982511681845116808217855250505050505090500191505060405180910390206000191614905092915050565b6080604051908101604052806060815260200160608152602001606081526020016000151581525090565b828054600181600116156101000203166002900490600052602060002090601f016020900481019282601f1061106957805160ff1916838001178555611097565b82800160010185558215611097579182015b8281111561109657825182559160200191906001019061107b565b5b5090506110a491906110a8565b5090565b6110ca91905b808211156110c65760008160009055506001016110ae565b5090565b90565b60006110d982356113ea565b905092915050565b600082601f83011215156110f457600080fd5b81356111076111028261137c565b61134f565b9150808252602083016020830185838301111561112357600080fd5b61112e83828461140a565b50505092915050565b60006020828403121561114957600080fd5b6000611157848285016110cd565b91505092915050565b60008060006060848603121561117557600080fd5b600084013567ffffffffffffffff81111561118f57600080fd5b61119b868287016110e1565b935050602084013567ffffffffffffffff8111156111b857600080fd5b6111c4868287016110e1565b925050604084013567ffffffffffffffff8111156111e157600080fd5b6111ed868287016110e1565b9150509250925092565b611200816113be565b82525050565b61120f816113de565b82525050565b6000611220826113b3565b808452611234816020860160208601611419565b61123d8161144c565b602085010191505092915050565b6000611256826113a8565b80845261126a816020860160208601611419565b6112738161144c565b602085010191505092915050565b600060208201905061129660008301846111f7565b92915050565b60006020820190506112b16000830184611206565b92915050565b600060608201905081810360008301526112d18186611215565b905081810360208301526112e58185611215565b905081810360408301526112f98184611215565b9050949350505050565b6000606082019050818103600083015261131d818661124b565b90508181036020830152611331818561124b565b90508181036040830152611345818461124b565b9050949350505050565b6000604051905081810181811067ffffffffffffffff8211171561137257600080fd5b8060405250919050565b600067ffffffffffffffff82111561139357600080fd5b601f19601f8301169050602081019050919050565b600081519050919050565b600081519050919050565b600073ffffffffffffffffffffffffffffffffffffffff82169050919050565b60008115159050919050565b600073ffffffffffffffffffffffffffffffffffffffff82169050919050565b82818337600083830152505050565b60005b8381101561143757808201518184015260208101905061141c565b83811115611446576000848401525b50505050565b6000601f19601f83011690509190505600a265627a7a7230582050eaf3e0defc33cfade49137668b8d105a1d1e1137efd5e0958ddeed7b9f0fac6c6578706572696d656e74616cf50037",
  "source": "pragma solidity ^0.4.23;\npragma experimental ABIEncoderV2;\n\nimport {UserStorage} from \"./UserStorage.sol\";\n\n\n/// @title Node Registration\ncontract Register is UserStorage {\n    /*\n    * @author Austin Hester\n    * @dev For use in the Registration Dapp\n    */\n\n    event UserRegistered(string _first, string _last, string _email);\n\n    constructor() public {\n        require(msg.sender != 0x0);\n    }\n\n    // Register user with given info\n    // Revert o alredy registered\n    /// @param _first name\n    /// @param _last name\n    /// @param _email email\n    function register(\n        string _first,\n        string _last,\n        string _email\n    ) public {\n        require(msg.sender != 0x0);\n        require(!isRegistered(msg.sender));\n        User memory newUser =\n            User(_first, _last, _email, true);\n        storeUser(msg.sender, newUser);\n        emit UserRegistered(newUser.first, newUser.last, newUser.email);\n    }\n    \n    // Get array of user info\n    /// @param _of address _of\n    /// @return array [first, last, email]\n    function getUser(\n        address _of\n    ) public view returns (\n        string first,\n        string last,\n        string email\n    ) {\n        require(_of != 0x0);\n        User memory u = getUserObject(_of);\n        return (u.first, u.last, u.email);\n    }\n\n    // Is this user registerede\n    /// @param _of address \n    /// @return boolean\n    function isRegistered(\n        address _of\n    ) public view returns (bool) {\n        require(_of != 0x0);\n        User memory u = getUserObject(_of);\n        return u.isRegistered;\n    }\n\n}\n",
  "sourcePath": "/home/austin/contracts/form/contracts/Register.sol",
  "compiler": {
    "name": "solc",
    "version": "0.4.23+commit.124ca40d.Emscripten.clang"
  },
  "schemaVersion": "2.0.0",
  "updatedAt": "2018-05-09T06:43:09.775Z"
}