{
  "contractName": "UserStorage",
  "abi": [
    {
      "constant": false,
      "inputs": [],
      "name": "renounceOwnership",
      "outputs": [],
      "payable": false,
      "stateMutability": "nonpayable",
      "type": "function"
    },
    {
      "constant": true,
      "inputs": [],
      "name": "owner",
      "outputs": [
        {
          "name": "",
          "type": "address"
        }
      ],
      "payable": false,
      "stateMutability": "view",
      "type": "function"
    },
    {
      "constant": false,
      "inputs": [
        {
          "name": "newOwner",
          "type": "address"
        }
      ],
      "name": "transferOwnership",
      "outputs": [],
      "payable": false,
      "stateMutability": "nonpayable",
      "type": "function"
    },
    {
      "inputs": [],
      "payable": false,
      "stateMutability": "nonpayable",
      "type": "constructor"
    },
    {
      "anonymous": false,
      "inputs": [
        {
          "indexed": true,
          "name": "previousOwner",
          "type": "address"
        }
      ],
      "name": "OwnershipRenounced",
      "type": "event"
    },
    {
      "anonymous": false,
      "inputs": [
        {
          "indexed": true,
          "name": "previousOwner",
          "type": "address"
        },
        {
          "indexed": true,
          "name": "newOwner",
          "type": "address"
        }
      ],
      "name": "OwnershipTransferred",
      "type": "event"
    },
    {
      "constant": true,
      "inputs": [
        {
          "name": "_of",
          "type": "address"
        }
      ],
      "name": "getUserInfo",
      "outputs": [
        {
          "name": "first",
          "type": "string"
        },
        {
          "name": "last",
          "type": "string"
        },
        {
          "name": "email",
          "type": "string"
        }
      ],
      "payable": false,
      "stateMutability": "view",
      "type": "function"
    }
  ],
  "bytecode": "0x608060405234801561001057600080fd5b50336000806101000a81548173ffffffffffffffffffffffffffffffffffffffff021916908373ffffffffffffffffffffffffffffffffffffffff16021790555060003373ffffffffffffffffffffffffffffffffffffffff161415151561007757600080fd5b61079a806100866000396000f300608060405260043610610062576000357c0100000000000000000000000000000000000000000000000000000000900463ffffffff1680636386c1c714610067578063715018a6146100a65780638da5cb5b146100bd578063f2fde38b146100e8575b600080fd5b34801561007357600080fd5b5061008e600480360361008991908101906105fc565b610111565b60405161009d93929190610685565b60405180910390f35b3480156100b257600080fd5b506100bb61036c565b005b3480156100c957600080fd5b506100d261046e565b6040516100df919061066a565b60405180910390f35b3480156100f457600080fd5b5061010f600480360361010a91908101906105fc565b610493565b005b60608060606000808573ffffffffffffffffffffffffffffffffffffffff161415151561013d57600080fd5b600160008673ffffffffffffffffffffffffffffffffffffffff1673ffffffffffffffffffffffffffffffffffffffff1681526020019081526020016000209050806000018160010182600201828054600181600116156101000203166002900480601f01602080910402602001604051908101604052809291908181526020018280546001816001161561010002031660029004801561021f5780601f106101f45761010080835404028352916020019161021f565b820191906000526020600020905b81548152906001019060200180831161020257829003601f168201915b50505050509250818054600181600116156101000203166002900480601f0160208091040260200160405190810160405280929190818152602001828054600181600116156101000203166002900480156102bb5780601f10610290576101008083540402835291602001916102bb565b820191906000526020600020905b81548152906001019060200180831161029e57829003601f168201915b50505050509150808054600181600116156101000203166002900480601f0160208091040260200160405190810160405280929190818152602001828054600181600116156101000203166002900480156103575780601f1061032c57610100808354040283529160200191610357565b820191906000526020600020905b81548152906001019060200180831161033a57829003601f168201915b50505050509050935093509350509193909250565b6000809054906101000a900473ffffffffffffffffffffffffffffffffffffffff1673ffffffffffffffffffffffffffffffffffffffff163373ffffffffffffffffffffffffffffffffffffffff161415156103c757600080fd5b6000809054906101000a900473ffffffffffffffffffffffffffffffffffffffff1673ffffffffffffffffffffffffffffffffffffffff167ff8df31144d9c2f0f6b59d69b8b98abd5459d07f2742c4df920b25aae33c6482060405160405180910390a260008060006101000a81548173ffffffffffffffffffffffffffffffffffffffff021916908373ffffffffffffffffffffffffffffffffffffffff160217905550565b6000809054906101000a900473ffffffffffffffffffffffffffffffffffffffff1681565b6000809054906101000a900473ffffffffffffffffffffffffffffffffffffffff1673ffffffffffffffffffffffffffffffffffffffff163373ffffffffffffffffffffffffffffffffffffffff161415156104ee57600080fd5b600073ffffffffffffffffffffffffffffffffffffffff168173ffffffffffffffffffffffffffffffffffffffff161415151561052a57600080fd5b8073ffffffffffffffffffffffffffffffffffffffff166000809054906101000a900473ffffffffffffffffffffffffffffffffffffffff1673ffffffffffffffffffffffffffffffffffffffff167f8be0079c531659141344cd1fd0a4f28419497f9722a3daafe3b4186f6b6457e060405160405180910390a3806000806101000a81548173ffffffffffffffffffffffffffffffffffffffff021916908373ffffffffffffffffffffffffffffffffffffffff16021790555050565b60006105f482356106fc565b905092915050565b60006020828403121561060e57600080fd5b600061061c848285016105e8565b91505092915050565b61062e816106dc565b82525050565b600061063f826106d1565b80845261065381602086016020860161071c565b61065c8161074f565b602085010191505092915050565b600060208201905061067f6000830184610625565b92915050565b6000606082019050818103600083015261069f8186610634565b905081810360208301526106b38185610634565b905081810360408301526106c78184610634565b9050949350505050565b600081519050919050565b600073ffffffffffffffffffffffffffffffffffffffff82169050919050565b600073ffffffffffffffffffffffffffffffffffffffff82169050919050565b60005b8381101561073a57808201518184015260208101905061071f565b83811115610749576000848401525b50505050565b6000601f19601f83011690509190505600a265627a7a723058204b72d1b529d779b91466661c7efd607276018351aff35fb664d8131e81ef309a6c6578706572696d656e74616cf50037",
  "source": "pragma solidity ^0.4.23;\npragma experimental ABIEncoderV2;\n\nimport {Ownable} from \"./Ownable.sol\";\n\n\n/// @title User Storage\ncontract UserStorage is Ownable {\n    /*\n    * @author Austin Hester\n    * @dev Built to be used by other contracts\n    */\n\n    // Represents a user\n\tstruct User {\n\t    string first;\n\t    string last;\n\t    string email;\n\t    bool isRegistered;\n\t    //string other;\n\t}\n\n\tmapping(address => User) private mUsers;\n\n    constructor() public {\n    \trequire(msg.sender != 0x0);\n    }\n\n    // Get info about the user at given address\n    /// @param _of address \n    /// @return array [first, last, email]\n    function getUserInfo(\n        address _of\n    ) public view returns (\n        string first,\n        string last,\n        string email\n    ) {\n        require(_of != 0x0);\n        User storage u = mUsers[_of];\n        return (u.first, u.last, u.email);\n    } \n\n    // Get the User object, cannot get through web3 as of now\n    // Can only be used in contracts.\n    // Cannot use struct as return values. -Apr 18\n    /// @return {User} object \n    function getUserObject(\n        address _of\n    ) internal view returns (User) {\n        require(_of != 0x0);\n        User memory u = mUsers[_of];\n        return u;\n    } \n\n    // Store the User object\n    /// @param _of address \n    /// @param _user object \n    function storeUser(address _of, User _user) internal {\n    \trequire(msg.sender == _of);\n        require(!mUsers[msg.sender].isRegistered);\n    \tmUsers[msg.sender] = _user;\n        assert(mUsers[msg.sender].isRegistered);\n        assert(strcmp(mUsers[msg.sender].first, _user.first));\n        assert(strcmp(mUsers[msg.sender].last, _user.last));\n        assert(strcmp(mUsers[msg.sender].email, _user.email));\n    }\n\n    /// @param a string \n    /// @param b string \n    /// @return boolean \n    function strcmp(\n        string a,\n        string b\n    ) internal pure returns (bool) {\n        return (keccak256(a) == keccak256(b));\n    }\n\n}\n",
  "sourcePath": "/home/austin/contracts/form/contracts/UserStorage.sol",
  "compiler": {
    "name": "solc",
    "version": "0.4.23+commit.124ca40d.Emscripten.clang"
  },
  "schemaVersion": "2.0.0",
  "updatedAt": "2018-05-09T06:43:09.777Z"
}